:020000040800F2
:10000000E824002021020008BB1C00089F190008FA
:10001000B91C0008C3040008B92000080000000053
:10002000000000000000000000000000890100083E
:10003000C504000800000000CD010008251E0008CE
:100040003B0200083B0200083B0200083B0200089C
:100050003B0200083B0200083B0200083B0200088C
:100060003B0200083B0200083B0200083B0200087C
:100070003B0200083B0200083B0200083B0200086C
:100080003B0200083B0200083B0200083B0200085C
:100090003B0200083B0200083B0200083B0200084C
:1000A0003B0200083B0200083B0200083B0200083C
:1000B000D11E00083B0200083B0200083B0200087A
:1000C0003B0200083B0200083B0200083B0200081C
:1000D0003B0200083B0200083B0200083B0200080C
:1000E0003B0200083B0200083B02000800F002F857
:1000F00000F03AF80AA090E8000C82448344AAF188
:100100000107DA4501D100F02FF8AFF2090EBAE885
:100110000F0013F0010F18BFFB1A43F0010318473B
:100120004438000064380000103A24BF78C878C111
:10013000FAD8520724BF30C830C144BF04680C60ED
:10014000704700000023002400250026103A28BF35
:1001500078C1FBD8520728BF30C148BF0B60704739
:100160001FB51FBD10B510BD00F045F91146FFF7D2
:10017000F7FF01F0C5FF00F063F903B4FFF7F2FFEA
:1001800003BC00F06BF90000224B19680868B0E866
:10019000F00F80F30988BFF36F8F4FF0000080F3FA
:1001A00011884EF00D0E70470000000006480068F0
:1001B000006880F3088862B661B6BFF34F8FBFF363
:1001C0006F8F00DF00BF00BF08ED00E0EFF3098094
:1001D000BFF36F8F0F4B1A6820E9F00F106008B55E
:1001E0004FF0500080F31188BFF34F8FBFF36F8F34
:1001F00002F0C4FE4FF0000080F31188BDE8084013
:1002000019680868B0E8F00F80F30988BFF36F8FB2
:10021000704700BF24000020EFF305807047000006
:100220000948804709480047FEE7FEE7FEE7FEE78A
:10023000FEE7FEE7FEE7FEE7FEE7FEE704480549C6
:10024000054A064B70470000CD1E0008ED0000086F
:10025000E81E0020E8240020E8200020E8200020FC
:10026000032A40F2308010F0030C00F0158011F8E2
:10027000013BBCF1020F624498BF11F801CB00F8BA
:10028000013B38BF11F8013BA2F1040298BF00F80E
:1002900001CB38BF00F8013B11F0030300F02580CB
:1002A000083AC0F0088051F8043B083A51F804CBF2
:1002B000A0E80810F5E7121D5CBF51F8043B40F8B8
:1002C000043BAFF30080D20724BF11F8013B11F8C3
:1002D00001CB48BF11F8012B24BF00F8013B00F807
:1002E00001CB48BF00F8012B704710B5203AC0F091
:1002F0000B80B1E81850203AA0E81850B1E8185027
:10030000A0E81850BFF4F5AF5FEA027C24BFB1E863
:100310001850A0E8185044BF18C918C0BDE81040D4
:100320005FEA827C24BF51F8043B40F8043B08BFDD
:100330007047D20728BF31F8023B48BF11F8012BA4
:1003400028BF20F8023B48BF00F8012B704702F09D
:10035000FF0343EA032242EA024200F02CB84FF0C6
:10036000000200B5134694469646203922BFA0E805
:100370000C50A0E80C50B1F12001BFF4F7AF090711
:1003800028BFA0E80C5048BF0CC05DF804EB890002
:1003900028BF40F8042B08BF704748BF20F8022B45
:1003A00011F0804F18BF00F8012B7047704770475D
:1003B00070474FF000020429C0F0128010F0030CC7
:1003C0003FF4CFAFCCF1040CBCF1020F18BF00F822
:1003D000012BA8BF20F8022BA1EB0C01FFF7C1BF36
:1003E0005FEAC17C24BF00F8012B00F8012B48BF55
:1003F00000F8012B7047754600F02CF8AE4605005A
:100400006946534620F00700854618B020B5FFF72F
:1004100015FFBDE820404FF000064FF000074FF0F9
:1004200000084FF0000B21F00701AC46ACE8C00912
:10043000ACE8C009ACE8C009ACE8C0098D4670471B
:1004400010B50446AFF300802046BDE81040FFF72A
:1004500094BE000000487047881E00200149182003
:10046000ABBEFEE7260002007047000070B50446F0
:1004700000688168C943C90717D1816821F001016B
:10048000816000F07DFA05460AE000BF00F078FACE
:10049000401B022804D920688068C043C00706D0EA
:1004A00020688068C043C007F0D0002070BDA06AFB
:1004B00040F01000A062E06A40F00100E06201201C
:1004C00070BDFEE770470000F8B50024009490F876
:1004D00024202546012A12D0012280F824204A68CF
:1004E0001F23072A0DD20668776B521E02EB820289
:1004F00093409F430B6893401F43776319E00220AA
:10050000F8BD06680D2A0AD2376BD21F02EB8202B1
:1005100093409F430B6893401F43376309E0F76A9A
:100520000D3A02EB820293409F430B6893401F43B6
:10053000F7620A68072306680A2A0AD3F7680A3AA4
:1005400002EB420293409F438B6893401F43F76046
:1005500008E0376902EB420293409F438B68934067
:100560001F4337610A68102A01D0112A20D1124B8B
:1005700002689A4217D193681B0219D4936843F416
:10058000000393600968102912D10C490C4A0968CC
:10059000B1FBF2F101EB8101490000E0491E00913D
:1005A0000029FBD104E0816A41F02001816201242D
:1005B00080F824502046F8BD00240140200000208F
:1005C00040420F002DE9F0414FF0000704003D4686
:1005D0007ED0A06A002628B9E66284F8246020460E
:1005E00000F07EF82046FFF741FFA16AC90600D45B
:1005F00020B1A06A40F01000A06269E0A16A21F475
:10060000885141F00201A1626268E169237B0A43DB
:1006100047EA43010A43A1684FF48077B94209D001
:10062000012907D05FF0000194F814C0BCF1010F5C
:1006300002D00AE03946F7E7F3B1A36A43F020039A
:10064000A362E36A43F00103E3622368D3F804C0C2
:100650002CF4694C4CEA010CC3F804C021688B6887
:10066000DFF870C003EA0C0313438B60A168B94242
:100670000BD0012909D00CE0DFF85CC0A3690CEBBA
:1006800043330B4343F40061DFE7218A0D05A5F5F1
:1006900080152168CB6A23F470032B43CB62216859
:1006A00089680E4B1940914208D1E662A16A21F097
:1006B000020141F00101A162BDE8F081A06A20F0D1
:1006C000020040F01000A062E06A40F00100E06229
:1006D0000120F1E7FDF7E1FF00E0FFFFFE0E1FFF45
:1006E00010B586B0002100910191029103911A4C3E
:1006F00003681A4903221A48A34211D18B6943F4B3
:1007000000738B618B6903F4007304938B6943F06E
:1007100004038B61896901F004010491102113E045
:10072000104CA34215D18B6943F480638B618B69B4
:1007300003F4806304938B6943F004038B6189693C
:1007400001F0040104912021CDE90012694600F076
:100750001DF806B010BD000000240140001002404A
:10076000000801400028014070B5044600F008F977
:100770000546601C02D004480078044400F000F9EB
:10078000401BA042FAD370BD140000202DE9F84FA1
:10079000DFF8B8910024A9F1040B23460F2709F1D3
:1007A000040AABF1040EC9E00125A5402A40AA4283
:1007B0007DD1674ED1F804C0ACEB0608B44532D009
:1007C00014DCBCF1030F3AD009DCBCF1000F2AD0D5
:1007D000BCF1010F1CD0BCF1020F31D11DE0BCF106
:1007E000110F17D0BCF1120F2AD119E0B8F5881FEC
:1007F00019D006DCB8F5803F15D0B8F5801F1FD1A1
:1008000011E0B8F5001F0ED0B8F5041F18D10AE0AA
:10081000CB6815E0CB681B1D12E0CB6808330FE0F6
:10082000CB680C330CE08B682BB1012B4FF0080325
:1008300003D0456104E0042302E0056100E00023E9
:10084000FF2A01D8064601E000F104064FEA8405BC
:1008500001D9A5F12005D6F8008007FA05FC28EAA1
:100860000C0803FA05F548EA0508C6F800804D684B
:10087000ED0062D5374DAE6946F00106AE61AD6957
:1008800024F0030605F001050095334D06EB050C39
:10089000DCF80850A607360F07FA06F825EA08051F
:1008A000DFF8B880404503D14FF0000817E044E07E
:1008B000DFF8AC80404502D14FF001080FE0DFF8CF
:1008C000A480404502D14FF0020808E0DFF898808C
:1008D000404502D14FF0030801E04FF0040808FA48
:1008E00006F848EA0508CCF808804D68D9F8006099
:1008F000ED024D4601D5164300E096432E604D684B
:10090000DAF80060AD02554601D5164300E0964383
:100910002E604D68DBF80060AD035D4601D51643DF
:1009200000E096432E604D68DEF80060ED037546EA
:1009300001D5164300E096432E60641C0D682A46DC
:10094000E5407FF431AFBDE8F88F000008040140B6
:10095000000011100010024000000140000801409A
:10096000000C014000100140001401408068084064
:1009700000D0012070470AB1016170470904FBE70C
:1009800001488068704700001400002070B5040022
:1009900025D094F83D00002520B984F83C5020462D
:1009A00000F0B8F8242084F83D002068016821F0A8
:1009B000010101602068016841F400410160206884
:1009C000016821F40041016000F070FB4D4A61684C
:1009D000914201D84C4900E04C49884201D20120A3
:1009E00070BD4B492368B0FBF1F15E6826F03F060D
:1009F0000E435E606368934206D94FF49673594381
:100A00004FF47A73B1FBF3F12368491C1E6A26F098
:100A10003F06314319626168914210D84900401E77
:100A2000B0FBF1F2521CC2F30B02042A01D20420E3
:100A300022E0B0FBF1F0401CC0F30B001CE0A26808
:100A4000F2B301EBC10303EB0116431EB3FBF6F354
:100A50005B1C43F480431B0549D092B301EBC102F8
:100A600002EB0111401EB0FBF1F0401CC0F30B0083
:100A700040F4804040F400402168CA694CF6FF739E
:100A80009A431043C861D4E9071001432068026803
:100A900022F0C00211430160D4E903010143206840
:100AA000826848F2FF339A4311438160D4E905011B
:100AB00008432168CA6822F0FF021043C86001E0C1
:100AC0000EE016E02068016841F001010160256434
:100AD000202084F83D00256384F83E50002070BD3E
:100AE00001EB4106431EB3FBF6F35B1CB3E70120A9
:100AF000C2E701EB4101401EB0FBF1F0401CC0F326
:100B00000B00B7E7A086010080841E0000093D00AD
:100B100040420F0030B585B0002100910191029153
:100B20000391214D0368214C122103222048AB423E
:100B30001DD1A36943F00803A361A369039203F0E5
:100B4000080304931302CDE900316946FFF71EFE46
:100B50001848416841F0E06141F002014160E069FC
:100B600040F40010E061E06900F4001019E0124D5B
:100B7000AB4217D1A36943F00803A361A3690392B1
:100B800003F0080304934FF44063CDE90031694654
:100B9000FFF7FCFDE06940F48000E061E06900F4EB
:100BA0008000049005B030BD0054004000100240A9
:100BB000000C0140000001400058004002488168DC
:100BC000027811448160704714000020074810B576
:100BD000016841F010010160032000F0A7F80F2028
:100BE00000F006F800F050F8002010BD0020024090
:100BF00030B50546204887B0C16941F00101C161A7
:100C0000C06906A900F00100009001A800F02EFACA
:100C10000498B8B100F04AFA400018494FF08042F9
:100C2000B0FBF1F11648491E0260416040F2E73224
:100C30000021C0E903218160816100F033FC0400E0
:100C400003D015E000F032FAE7E70D4800F058FC59
:100C500004000DD11C2000F03BF8102D07D200221B
:100C600029461C2000F042F80648056000E00124F7
:100C700007B0204630BD00000010024040420F0087
:100C80006C050020180000200F4808B5816941F06C
:100C900001018161816901F001010091C16941F0A7
:100CA0008051C161C069002200F0805000900F2186
:100CB000901E00F01BF80548416821F0E06141F00A
:100CC0000071416008BD00000010024000000140BA
:100CD000002809DB00F01F0201219140400980003B
:100CE00000F1E020C0F8001170470000F0B40E4B96
:100CF0001B680C46C3F30223C3F10705042D00D97A
:100D00000425191D072901D2002300E0DB1E01265E
:100D100006FA05F1491E214099409E40761E164074
:100D20003143F0BC01F0C9B90CED00E0064900F018
:100D3000070208684FF6FF03184040EA0220034A02
:100D400010430860704700000CED00E00000FA0559
:100D50002DE9F04186B0040004D094F8A9020025E2
:100D600020B108E0012006B0BDE8F08184F8A85267
:100D7000204600F05BF8032084F8A902206801F007
:100D800092F904F11001142288466846FFF7ADFA83
:100D900094E80F0001F07AF90227D0BB0021206807
:100DA00001F088F9002001260EE000BF00EB800171
:100DB00004EBC10181F8296001F8280F401CCD70B7
:100DC0000D614D61C0B28D6161688142EED8002035
:100DD00012E000BF00EB800104EBC10181F8695112
:100DE00081F8680181F86B51C1F87851C1F87C51E4
:100DF000401CC0B2C1F8805161688142EAD8142217
:100E000041466846FFF771FA94E80F0001F042F995
:100E100010B184F8A972A5E784F8245084F8A96277
:100E2000206801F035F900209DE7000008B5006852
:100E30000649884208D10648C16941F40001C161F0
:100E4000C06900F40000009008BD0000005C004094
:100E5000001002402DE9F84305460078354CC007E4
:100E600054D0E0690026C00008D4E06940F080500A
:100E7000E061E069012600F0805000902E48016892
:100E8000C90512D40168804641F480710160FFF702
:100E900077FD074605E000BFFFF772FDC01B642821
:100EA00023D8D8F80000C005F6D5206A10F44070A9
:100EB00021D0A98801F4407181421CD0206A1F49C9
:100EC000012220F440700A6000220A602062C007FC
:100ED00011D0FFF755FD074641F2883808E000BF02
:100EE000FFF74EFDC11B414502D90320BDE8F88341
:100EF000206A8007F4D5206A696820F440700843AE
:100F000020621EB1E06920F08050E06128788007FF
:100F100005D56068A96820F44040084360602878DF
:100F2000C00605D56068E96820F480000843606069
:100F30000020DBE700100240007000404004424205
:100F40002DE9F0470F46050061D0434E306800F0B0
:100F50000700B84209D2306820F0070038433060FB
:100F6000306800F00700B84251D128683B4C810737
:100F700012D5400703D5606840F4E06060602878CF
:100F8000000703D5606840F4605060606068A9683D
:100F900020F0F000084360602878C00728D0686817
:100FA000012810D02168022810D0890700292EDAE4
:100FB000616821F0030101436160FFF7E1FC8046B5
:100FC00041F288390DE021688903EFE78901EDE7F7
:100FD000FFF7D6FCA0EB0801494502D90320BDE884
:100FE000F0876068696800F00C00B0EB810FEFD10A
:100FF000306800F00700B8420BD9306820F00700D5
:1010000038433060306800F00700B84201D001205A
:10101000E5E72878400705D56068E96820F4E060D6
:10102000084360602878000706D56068296920F4C5
:10103000605040EAC100606000F048F86168084A0A
:10104000C1F30311515CC8400649086006480068B6
:10105000FFF7CEFD0020C2E7002002400010024052
:101060002E39000820000020180000200F22026006
:101070000C4A536803F003034360536803F0F00322
:101080008360536803F4E063C36052684FF4E06325
:1010900003EAD20202610448006800F00700086019
:1010A000704700000010024000200240044805493B
:1010B00000684968044AC1F30221515CC840704786
:1010C00020000020001002403E3900080E4A5168FE
:1010D0000E4801F00C03042B11D0082B0FD10C4843
:1010E000C1F38343C903C05C0AD55168084AC1F300
:1010F0004041921E515C054A5043B0FBF1F07047ED
:1011000004494843704700000010024000127A0072
:101110001E39000800093D002DE9F84F040070D089
:101120002078C04DC00749D06868C0F3810001280D
:1011300007D06868C0F38100022809D16868C0033D
:1011400006D52868800339D560680028E7D035E0E7
:101150006068B0F5803F0BD010B1B0F5A02F11D072
:10116000286820F480302860286820F4802002E07D
:10117000286840F480302860606890B1FFF700FC78
:1011800006460AE0286840F480202860F0E700BFA7
:10119000FFF7F6FB801B642873D828688003F7D517
:1011A0000CE0FFF7EDFB064605E000BFFFF7E8FBAC
:1011B000801B6428F0D828688003F7D420789A4EE2
:1011C00080074FF001094FF0000839D5686810F02A
:1011D0000C0F07D06868C0F38100022809D1686845
:1011E000C00306D42868800714D52069012808D1D7
:1011F00010E02069B0B1C6F80090FFF7C1FB0746C8
:1012000005E00AE1FFF7BCFBC01B0228C4D8286830
:101210008007F7D52868616920F0F80040EAC1002E
:1012200028600DE0C6F80080FFF7AAFB074604E03F
:10123000FFF7A6FBC01B022823D828688007F7D435
:10124000207800072CD57948A169D9B1C0F8009061
:10125000FFF796FB074604E0FFF792FBC01B02284E
:101260000FD8686A8007F7D571484FF4FA510068C3
:10127000B0FBF1F0009000BF0098411E0091FAD23F
:101280000EE080E0C0F80080FFF77AFB074604E03C
:10129000FFF776FBC01B022875D8686A8007F7D471
:1012A0002078400760D5E8690027C00008D4E869C5
:1012B00040F08050E861E869012700F0805000901C
:1012C0005C480168C90513D40168834641F4807104
:1012D0000160FFF755FB824606E000BFFFF750FBB9
:1012E000A0EB0A0064284ED8DBF80000C005F5D555
:1012F000E06801280AD008B1052813D0286A20F038
:1013000001002862286A20F0040002E0286A40F008
:1013100001002862E06841F2883B98B1FFF730FB9A
:1013200082460BE0286A40F004002862EEE700BF26
:10133000FFF726FBA0EB0A0159455AD8286A800717
:10134000F6D50CE0FFF71CFB824605E0FFF718FB23
:10135000A0EB0A0159454CD8286A8007F6D41FB182
:10136000E86920F08050E861E06988B36968C1F3FA
:101370008101022944D00228C6F8608004D0FFF71A
:10138000FFFA044638E034E0FFF7FAFA074604E0D3
:10139000FFF7F6FAC01B02282BD828688001F7D483
:1013A000206AB0F5803F05D16868A16820F400305C
:1013B00008436860D4E908010843696821F474119E
:1013C00008436860C6F86090FFF7DAFA044606E062
:1013D00025E000BFFFF7D4FA001B022809D82868CF
:1013E0008001F7D51BE000BFFFF7CAFA001B0228F7
:1013F00002D90320BDE8F88F28688001F4D40EE0FC
:101400000128F7D06868226A00F48031914204D143
:10141000616A00F47010884201D00120EAE70020E0
:10142000E8E700000010024000004242800442420F
:1014300020000020007000407047704770B590F8A1
:101440003C20012A26D0012480F83C40022280F86A
:101450003D2003685A689D6822F070060A6832438E
:101460005A600D4B02689A4208D0B2F1804F05D005
:101470000A4B9A4202D00A4B9A4204D1496825F09D
:1014800080031943916080F83D40002180F83C10B2
:10149000084670BD022070BD002C014000040040D1
:1014A0000008004010B5040003D094F83D0010B1CE
:1014B00007E0012010BD002084F83C00204600F029
:1014C0001EF8022084F83D00211D206800F006FD72
:1014D000012084F8460084F83E0084F83F0084F838
:1014E000400084F8410084F8420084F8430084F806
:1014F000440084F8450084F83D00002010BD70478A
:1015000090F83D10012901D001207047022180F898
:101510003D100168CA6842F00102CA6000680B49C8
:10152000884208D0B0F1804F05D00949884202D0E6
:101530000849884204D1816801F00701062903D0D7
:10154000016841F00101016000207047002C01405A
:1015500000040040000800402DE9F0410D46040061
:1015600003D094F83D0018B108E00120BDE8F081F7
:10157000002084F83C00204600F040F8022084F867
:101580003D002068816844F2070291438160211D7B
:10159000206800F0A3FC226890689169166A2B68A5
:1015A000AF69034340F20330814341EA0721A86851
:1015B000EF6908434FF6FC418843E96840EA072099
:1015C000014328692F6A000140EA0730084369682F
:1015D0006D6926F0220646EA0515294393602268C4
:1015E000906154F8460B0162012004F81F09E07570
:1015F0002076E0762077A0750020B7E700B585B0AB
:1016000000210091019102910391224B026822492D
:1016100022489A4214D18A6942F400628A618A6936
:1016200002F4006204928A6942F004028A618969C4
:1016300001F0040104914FF440710091694625E0E6
:10164000174B9A4224D1CA6942F00202CA61CA69A0
:1016500002F0020204928A6942F004028A618A69F5
:1016600002F0040204928A6942F008028A618969E0
:1016700001F008010491C02100916946FFF786F846
:10168000022000900190039069460648FFF77EF81B
:1016900005B000BD002C01400010024000080140D0
:1016A00000040040000C0140704770B5044600681B
:1016B00001694FF00005C943890715D4C168C943C2
:1016C000890711D4E91E0161012020772068806913
:1016D0008007204602D0FFF7E7FF04E000F098F80B
:1016E000204600F053F9257720680169C94349076E
:1016F00017D4C168C943490713D46FF004010161CD
:10170000022020772068806910F4407F204602D0B4
:10171000FFF7CAFF04E000F07BF8204600F036F93E
:10172000257720680169C943090716D4C168C943F0
:10173000090712D46FF008010161042020772068A6
:10174000C0698007204602D0FFF7AEFF04E000F03A
:101750005FF8204600F01AF9257720680169C9432F
:10176000C90617D4C168C943C90613D46FF0100164
:101770000161082020772068C06910F4407F20466E
:1017800002D0FFF791FF04E000F042F8204600F09D
:10179000FDF8257720680169C943C90708D1C168E8
:1017A000C943C90704D1891E0161204600F0EFF842
:1017B00020680169C943090609D4C168C9430906FB
:1017C00005D46FF0800101612046FFF735FE2068E7
:1017D0000169C943490609D4C168C943490605D40A
:1017E0006FF040010161204600F0D8F820680169DF
:1017F000C94389060BD4C168C943890607D46FF071
:10180000200101612046BDE87040FFF716BE70BDA3
:10181000704770B5044690F83C0000260D4601283C
:101820000FD0012084F83C006AB1042A1DD0082A98
:101830002FD00C2A3FD00126002084F83C003046EF
:1018400070BD022070BD206800F07EFB20688169B9
:1018500041F0080181612068816921F00401816102
:10186000206881692A69114311E0206800F094FB27
:101870002068816941F4006181612068816921F4F7
:1018800080618161206881692A6941EA0221816160
:10189000D2E7206800F0ACFB2068C16941F0080184
:1018A000C1612068C16921F00401C1612068C1697A
:1018B0002A69114311E0206800F0C6FB2068C16965
:1018C00041F40061C1612068C16921F48061C16196
:1018D0002068C1692A6941EA0221C161ACE710B5FB
:1018E000040003D094F83D0010B107E0012010BDC2
:1018F000002084F83C00204600F01EF8022084F806
:101900003D00211D206800F0E9FA012084F846001E
:1019100084F83E0084F83F0084F8400084F84100D9
:1019200084F8420084F8430084F8440084F84500B9
:1019300084F83D00002010BD00B585B00021009165
:1019400001910291039100680D49884216D10D481A
:10195000C16941F00401C161C16901F00401049150
:10196000816941F0080181618069694600F00800E1
:101970000490C02000900448FEF708FF05B000BDA9
:101980000008004000100240000C01407047006851
:10199000B0F1804F01D1FFF711B970477047FEE7F2
:1019A0003EB5002411480094019402940E498460CD
:1019B000016004730475012505614FF460214460E2
:1019C000C161FEF7FFFD08B172B6FEE70420CDE964
:1019D0000005694602940548FEF776FD002801D00F
:1019E00072B6FEE73EBD0000002401409C000020CE
:1019F0003EB5002411480094019402940E4984607D
:101A0000016004730475012505614FF46021446091
:101A1000C161FEF7D7FD08B172B6FEE70520CDE93A
:101A20000005694602940548FEF74EFD002801D0E6
:101A300072B6FEE73EBD000000280140CC00002049
:101A40002DE9F04F85B000243D48009401940294A4
:101A50000394816941F010018161816901F01001F5
:101A60000491816941F020018161816901F02001C7
:101A70000491816941F004018161816901F00401EF
:101A80000491816941F0080181618069DFF8B490B7
:101A900000F008004FF4C045049000222946484653
:101AA000FEF769FFDFF8A0B04FF470470022394617
:101AB0005846FEF760FFDFF894A04FF4004800227C
:101AC00041465046FEF757FF009501250226CDE915
:101AD0000156694648460396FEF758FE0F208DE8EA
:101AE000510069465046FEF751FECDE90054694663
:101AF00058460294FEF74AFE00970396CDE901543A
:101B000069465846FEF742FEA802CDE90004694640
:101B100050460294FEF73AFECDF800800396CDE9D8
:101B2000015469465046FEF731FE30208DE8310001
:101B300069465846FEF72AFE05B0BDE8F08F000062
:101B40000010024000100140000C0140000801405C
:101B500010B58CB024216846FEF701FC002416481D
:101B6000099414490A94C0E900144FF6FF71C0E9C2
:101B700002410461446184610120CDE90004CDE9A2
:101B800002040494CDE90540079469460A48089484
:101B9000FFF7E2FC08B172B6FEE7099409A906480E
:101BA0000A94FFF74BFC002801D072B6FEE70CB098
:101BB00010BD0000002C0140A401002010B58CB025
:101BC00024216846FEF7CBFB0024154809941349ED
:101BD0000A94C0E900144FF6FF71C0E902410461A4
:101BE00084610120CDE90004CDE902040494CDE92B
:101BF0000540079469460A480894FFF7ADFC08B110
:101C000072B6FEE7099409A905480A94FFF716FC85
:101C1000002801D072B6FEE70CB010BD00040040F1
:101C2000EC01002010B592B024216846FEF797FB26
:101C3000002410941C2109A81194FEF790FB1D4864
:101C40001B49C0E900144FF6FF71C0E9024104616D
:101C50008461FFF744FE08B172B6FEE70120CDE9CA
:101C60000004CDE902040494CDE9054007946946D7
:101C700010480894FFF770FC08B172B6FEE71094A4
:101C800010A90C481194FFF7D9FB08B172B6FEE712
:101C90006020CDE909040B940C2209A905480D9494
:101CA000FFF7B7FD002801D072B6FEE712B010BDF5
:101CB0000008004034020020FEE7FEE708B501F00E
:101CC00083FC0090294A0021294800F0D1FA2949D3
:101CD000DFF8A4A000250860202154465046FEF7F6
:101CE00045FE20B90021284600F0F7F905461021ED
:101CF0002046FEF73BFE48B900220021284600F0AE
:101D0000ECF9521CD2B205467F2AF6D3002435B135
:101D1000012D06D0022D06D0032D07D105E00224A7
:101D200004E0032402E0042400E001244FF40059FD
:101D3000124F4FF4FA7811E0002249463846FEF778
:101D40001AFE4046FEF710FD012249463846FEF7CE
:101D500012FE4046FEF708FD761CF6B2A642EBD313
:101D600041F28831684601F035F8B5E7F8380008E7
:101D7000811D000804000020000C014000100140FB
:101D800001F022FCDFF890A0DFF89080DFF890B03F
:101D900001244FF480590020C8F80000A8F804007E
:101DA0004FEA000609FA06F7B9B201225846FEF7D3
:101DB000E2FD0120FEF7D8FC5FF0000504FA05F013
:101DC00081B25046FEF7D2FD012813D105EB860003
:101DD000C0B20828414606D20A7804FA00F31A4332
:101DE00088F8002006E04A78083804FA00F31A431D
:101DF00088F801206D1CEDB2042DDFD3B9B20022AA
:101E00005846FEF7B8FD761CF6B2042ECAD34FF43E
:101E1000FA7000F0D7F9BEE7000801400800002082
:101E2000000C014010B5502080F31188BFF34F8F94
:101E3000BFF36F8F01F0CEFB18B104494FF0805013
:101E40000860002080F3118810BD000004ED00E060
:101E500030B593B028216846FEF781FA14210AA80C
:101E6000FEF77DFA002401200F94109411940104D0
:101E700012948DE8130004904FF4E010CDE908109F
:101E8000022507956846FFF747F908B172B6FEE7E5
:101E90000F20CDE90A054FF48060CDE90C40022106
:101EA0000AA80E94FFF74CF808B172B6FEE71220AC
:101EB0000F904FF40040CDE911040FA8FEF7CAFFC0
:101EC000002801D072B6FEE713B030BD70470000A5
:101ED0000148FFF7EABB00006C050020F0B502687E
:101EE000164B174C174D4FF08047984205D0B8421B
:101EF00003D0A04201D0A84203D122F070064A6864
:101F00003243984205D0B84203D0A04201D0A84243
:101F100003D122F44074CA6822434C6922F0800243
:101F2000224302608A68C2620A688262984201D1D2
:101F30000969016301214161F0BD0000002C0140ED
:101F4000000400400008004030B5036A026A22F035
:101F5000010202624268846924F073050C682C4314
:101F600023F002058B682B430A4DA8420BD123F0C6
:101F70000805CB6822F440722B434D6923F004031B
:101F800015438A692A434260846149684163036258
:101F900030BD0000002C014030B5026A036A23F016
:101FA00010030362436884690D6824F4E64444EA3C
:101FB00005248D6822F0200242EA05120B4DA8424A
:101FC0000ED1CD6822F0800242EA05124D6923F459
:101FD000406343EA85038D6922F0400243EA8503AA
:101FE0004360846149688163026230BD002C014016
:101FF00030B5036A026A22F4807202624268C469E0
:1020000023F4007324F073050C682C438D6843EAB5
:1020100005230C4DA8420ED1CD6823F4006343EA9A
:1020200005234D6922F4405242EA05128D6923F4DA
:10203000806342EA05124260C4614968C163036279
:1020400030BD0000002C014030B5046A026A22F461
:10205000805202624268C3690D6823F4E64343EA92
:1020600005238D6824F4005444EA0534064DA84243
:1020700004D14D6922F4804242EA85124260C36174
:1020800049680164046230BD002C014000207047A3
:1020900000207047012120F8401F0021018081802D
:1020A00001820846704730F8401F21F43F4101800B
:1020B0000020704700207047FEE70907090E00283E
:1020C00004DB00F1E02080F80014704700F00F00FE
:1020D00000F1E02080F8141D704730B1012809D0CC
:1020E00002280AD0032802D107E009B10120704775
:1020F0000320704709B1022070470020704700009C
:10210000FEF764FDFFF7A4FEFFF79AFC254824497B
:10211000254E00240160C0E901640D14C0E90345A7
:1021200044618461C4610462FEF730FC08B172B698
:10213000FEE71C481D4954300160C0E90164C0E954
:10214000034544618461C4610462FEF71FFC08B169
:1021500072B6FEE7FFF7FCFCFFF730FDFFF762FD0C
:10216000FFF71EFCFFF744FC1248114901600821EB
:1021700041608461C461022104628160FEF7E8FD70
:1021800008B172B6FEE700F037F80B4A00210B48A1
:1021900000F06EF80A49086000F04AF8FEE7000017
:1021A00000540040FC000020A086010000580040C0
:1021B000005C00407C020020D4380008BD1C0008F0
:1021C0000000002010B5EFF3058149B9EFF310814D
:1021D00031B908490968022905D1EFF3118111B11C
:1021E0006FF0050403E0002408B100F0CDFD2046A7
:1021F00010BD000074000020EFF3058058B9EFF324
:10220000108040B909490868022801D030B109E0BE
:10221000EFF3118030B16FF00500704701200860C6
:10222000002070474FF0FF3070470000740000201E
:1022300010B5EFF3058060B9EFF3108048B90B4992
:102240000868022802D0012806D00BE0EFF31180C5
:1022500040B16FF0050010BD0220086000F042FEA2
:10226000002010BD4FF0FF3010BD000074000020B2
:10227000F0B585B04FEA01034FF00004EFF305819C
:102280000394A1BBEFF3108189BB2149096802299E
:1022900002D1EFF3118151BB48B3402618218DF8CC
:1022A000104004AD42B3176807B13D4697691FB1AE
:1022B00039467F1E382F02D21779FF0702D000203F
:1022C00005B0F0BD576907B1BE08D2F808C0BCF12F
:1022D000000F0DD0D4685C2C18D312693AB137B115
:1022E0008DE806103246294601F035F903900DE0DD
:1022F000D7685FB912694AB903AACDE90012B2B230
:10230000294601F0FBF8012800D003940398D7E791
:10231000740000202DE9F041134C0F460546666914
:102320002068001D00F002FC681C07D137B121684D
:10233000BDE8F0410D48091D00F046BC2068354459
:10234000B5424560216805D2A068BDE8F041091D8D
:1023500000F022BC6068091D00F01EFC206B854265
:1023600000D22563BDE8F08124000020A40A0020EB
:102370002DE9F041054600F033FC274C2069401C54
:1023800020612068254F10B1E06930B32BE0256053
:102390002069012827D1002606EB860007EB800084
:1023A00000F0ECFB761C382EF6D31D4800F0E6FB5F
:1023B0001B48143000F0E2FB1948283000F0DEFB27
:1023C00017483C3000F0DAFB1548503000F0D6FBDF
:1023D000134860601430A06005E02068E96AC06AB4
:1023E000884200D82560E06A401CE0626864E86AC0
:1023F000A169884200D9A06100EB800007EB800052
:10240000291D00F0E1FB00F00BFCE069002800D082
:102410002068BDE8F081000024000020F4050020C1
:10242000540A002038B500F0DBFB104CA068C8B996
:102430000F4800F0A3FB0E48143000F09FFB0C483F
:102440002060143060600A4B00202833009003F1B4
:10245000500210210A2000F017FEA06010B105A163
:1024600000F05CFCBDE8384000F0DABB6000002002
:10247000B80A0020546D72510000000030B4026CA4
:102480000B46002A0BD0C1681144C1604468A142C8
:1024900001D30168C16030BC1846FDF7E1BE30BC15
:1024A00070472DE9F041856B174604460026026C03
:1024B00082B1C7B1E068FDF7D3FEE168206C091A6C
:1024C000E1602268914202D26168081AE060022F3E
:1024D00016D017E02068A8B9606801F0CDF806466C
:1024E000002060600EE0A068FDF7BAFE216CA068D5
:1024F0000844A0606168884204D32068A06001E0BD
:1025000005B16D1E6D1CA5633046BDE8F08110B5A8
:10251000044690F8590058B101280CD002280FD079
:10252000502080F31188BFF34F8FBFF36F8FFEE70A
:10253000206B00F089FB2046BDE8104000F084BB12
:1025400010BD000010484FF48051420706D0C01D56
:102550000D4920F00700411AC1F580510B4A0023B4
:102560000144C2E900030839103A21F00701116063
:102570004B600B600B1AC0E9001393604FF00040F2
:102580005360D06070470000880E00208800002053
:10259000114E124C4FF08057DFF8448012E000BF1C
:1025A00000F01EFBF068C568281D00F0BFFA206926
:1025B000401E2061E068401EE06000F031FB2846CC
:1025C000FFF7A5FFE0680028EAD1C8F80070BFF364
:1025D0004F8FBFF36F8FF5E7900A00202400002093
:1025E00004ED00E070B51D46049C51B1C4F8002014
:1025F000C4E90F010121204600F079FD84F84C5018
:1026000070BD2460F4E72DE9F0470E46DDE909844A
:102610001746824691009946089DA522206BFDF73A
:1026200096FE6FF00301206B01EB8701084420F058
:102630000707780707D0502080F31188BFF34F8F2A
:10264000BFF36F8FFEE72218315C82F83410315CE3
:1026500011B1401C1028F6D3002684F84360382DB1
:1026600000D33725E562C4E91356201D00F091FA26
:1026700004F1180000F08DFA2461C5F1380064629D
:10268000A061666584F858604A465146384600F0B5
:102690003BFA2060B8F1000F01D0C8F80040BDE857
:1026A000F087000030B5114900E011460A68824207
:1026B000FBD34B685C18844203D1406818444860DF
:1026C000084643681C18944209D1084C103C246801
:1026D000A24209D052681A4442600A681268026035
:1026E000814200D0086030BD0460F9E78800002016
:1026F00070B5002441600B4D0061914206D8D11A9B
:102700008269914206D2011D686807E09A4203D2AD
:10271000994201D3012403E0011D286800F03CFA2E
:10272000204670BD6000002010B5044600F058FA45
:10273000A06B28B15FF0000400F072FA204610BDD3
:102740000124F9E730B589B0304D55E004980028F0
:1027500006DADDE90601059A9047049800284BDB6C
:10276000069C606910B1201D00F0E0F902A800F09D
:10277000B9F8024604980A283ED2DFE800F00505C1
:10278000053D263705053D260598A1690346014408
:102790002046FFF7ADFF00B3616A20468847E06935
:1027A000012829D1002000900598A1690023421832
:1027B0001946204601F05AF878B9502080F3118864
:1027C000BFF34F8FBFF36F8FFEE70598A06128B16D
:1027D000811813462046FFF78BFF0DE0502080F351
:1027E0001188BFF34F8FBFF36F8FFEE794F82C0073
:1027F00010B9204600F028FA002204A9A86800F0C9
:10280000B1FD0028A2D109B030BD00006000002059
:102810002DE9FC410F46054600F0A8FB01A800F099
:1028200061F80446019818B100F09EFFBDE8FC81F4
:10283000224EAFB170680068A8B30027291B3A4642
:10284000B06800F07FFA00F08FFF0028EED11C493D
:102850004FF080500860BFF34F8FBFF36F8FE5E7F5
:10286000A542EBD800F080FF30682746C068C468F6
:10287000201D00F05BF9E069012810D1A0692B460A
:1028800041193A462046FFF733FF40B10020034686
:10289000014600902A46204600F0E8FF20B1616A18
:1028A00020468847C2E707E0502080F31188BFF335
:1028B0004F8FBFF36F8FFEE70127BFE76000002057
:1028C00004ED00E006484168096829B14168C9681B
:1028D000C9684968016370474FF0FF31FAE70000AB
:1028E0002400002070B5054600F06EFE064E04463A
:1028F0003069844203D200F009F8012000E0002092
:1029000028602046346170BD60000020F8B5194D84
:102910001FE0C068C4680668201D00F007F9616AFE
:1029200020468847E069012813D1A0693044B042AD
:1029300006D924616060211D286800F02DF908E0A7
:1029400000200346014600903246204600F08EFFEC
:1029500038B1286801680029DBD16968C5E9001031
:10296000F8BD502080F31188BFF34F8FBFF36F8FF6
:10297000FEE700006000002008484068401C4FF05F
:10298000500080F3118804D0BFF34F8FBFF36F8FD7
:10299000FEE7BFF34F8FBFF36F8FFEE7900000207D
:1029A000074C2068016841B1C0680021D0F80000E0
:1029B000FFF72EFFFFF7C6FEF3E701210020F7E740
:1029C000600000202DE9F041044600F009F994F977
:1029D000455004F1240609E0606A48B1304600F031
:1029E0008BFE08B100F044FA6D1E6DB2002DF3DCD1
:1029F0004FF0FF3684F8456000F012F900F0F0F86F
:102A000094F9445004F1100709E0206948B13846B0
:102A100000F072FE08B100F02BFA6D1E6DB2002DB1
:102A2000F3DC84F84460BDE8F04100F0F9B8000040
:102A30002DE9F0410546002700F098FA314E306844
:102A400008B9FFF77FFDF06805424BD1C5B30835E3
:102A500068070ED005F00700C0F1080005446807BC
:102A600007D0502080F31188BFF34F8FBFF36F8FD3
:102A7000FEE72DB37068854234D8224810300146F5
:102A80000C6801E020460C466168A94202D2216828
:102A90000029F7D131688C4224D007682168016091
:102AA00060680837411B10290FD96019420708D008
:102AB000502080F31188BFF34F8FBFF36F8FFEE775
:102AC00010E041606560FFF7EDFD61687068401AD5
:102AD0007060B268904200D2B060F068014300209C
:102AE000C4E9000100F040FE780707D0502080F3D1
:102AF0001188BFF34F8FBFF36F8FFEE73846BDE8F5
:102B0000F08100007800002010B5031F4FF08074A2
:102B10001C601B1F21F001011960191F024B0B6083
:102B2000143940380A6010BD79290008D0E9013213
:102B300001699A60D0E901235A604A68824201D152
:102B400082684A60002202610868401E08600868C6
:102B500070470000034B036003F15C0008604020F5
:102B600010607047D00B0020034B036003F15C0042
:102B700008604020106070472C0D002000F1080113
:102B80004FF0FF32C0E90112C16001610021016014
:102B9000704700210161704730B50B685A1C02D0A4
:102BA00000F1080202E0026904E022465468256848
:102BB0009D42FAD953684B6099608A605160086100
:102BC0000168491C016030BD42684A6093688B60AF
:102BD00093685960916008610168491C0160704701
:102BE000502080F31188BFF34F8FBFF36F8F0A49D6
:102BF0004868401C486001280CD10848006810F063
:102C0000FF0F07D0502080F31188BFF34F8FBFF321
:102C10006F8FFEE7704700009000002004ED00E099
:102C20000849486828B1401E486001D180F31188E6
:102C30007047502080F31188BFF34F8FBFF36F8F21
:102C4000FEE700009000002070B5002827D0144D4A
:102C5000A0F108046168E868014207D1502080F3C0
:102C60001188BFF34F8FBFF36F8FFEE722683AB131
:102C7000502080F31188BFF34F8FBFF36F8FFEE7B3
:102C80008143616000F072F96068696808446860B7
:102C90002046FFF707FDBDE8704000F065BD70BD40
:102CA000780000204FF0E02000210161816105499A
:102CB0004FF47A720968B1FBF2F1491E41610721B4
:102CC000016170472000002010B5FDF7A5FA1149F9
:102CD00010280ED300F1E02090F8F0030A7890421B
:102CE00007D2502080F31188BFF34F8FBFF36F8F4F
:102CF000FEE709480068896800F4E060884207D967
:102D0000502080F31188BFF34F8FBFF36F8FFEE722
:102D100010BD0000900000200CED00E010B5084B45
:102D2000002200BF53F832401CB1521C082AF9D3CC
:102D300010BD43F8321003EBC201486010BD000023
:102D4000B405002070B515460E460446FFF748FF4F
:102D500094F944100020491C01D184F8440094F9EE
:102D60004510491C01D184F84500FFF759FFA06BBD
:102D700028B92A46314604F1240000F097F820468D
:102D8000BDE87040FFF71EBE10B5020014D00F481A
:102D9000806B38B1502080F31188BFF34F8FBFF3A1
:102DA0006F8FFEE700F0E2F800211046FFF7B2FA5D
:102DB00000F0DAFC002807D105494FF08050086088
:102DC000BFF34F8FBFF36F8F10BD000024000020B2
:102DD00004ED00E070B50D4604000BD095B11E4A1D
:102DE000906BB8B1502080F31188BFF34F8FBFF3C1
:102DF0006F8FFEE7502080F31188BFF34F8FBFF332
:102E00006F8FFEE7502080F31188BFF34F8FBFF321
:102E10006F8FFEE700F0AAF85269236859199342B0
:102E200004D98B420AD9914202D807E08B42FAD9E1
:102E3000881A21600021FFF76DFA00E0216000F0A0
:102E400093FC002807D105494FF080500860BFF37C
:102E50004F8FBFF36F8F70BD2400002004ED00E0A2
:102E600002498A6A02604969416070472400002073
:102E700001490120486270472400002010B50C462B
:102E800050B1094909681831FFF786FE2046BDE8B0
:102E900010400121FFF73EBA502080F31188BFF3A4
:102EA0004F8FBFF36F8FFEE72400002070B51446EC
:102EB0000D4668B10A4909681831FFF785FE0CB163
:102EC0004FF0FF3521462846BDE87040FFF722BA93
:102ED000502080F31188BFF34F8FBFF36F8FFEE751
:102EE0002400002030B587B00024039405AA04A96B
:102EF00003A80494FFF72EFEDDE903010094CDE959
:102F00000110002315A11748059A00F024FB164D67
:102F1000002868631FD000F079FC012809D0401C0C
:102F200019D1502080F31188BFF34F8FBFF36F8FFB
:102F3000FEE7502080F31188BFF34F8FBFF36F8FF0
:102F40004FF0FF3028630120E8616C6107B0BDE8F5
:102F5000304000F045B807B030BD000049444C4552
:102F60000000000091250008240000200248816B29
:102F7000491C81637047000024000020164810B5EA
:102F8000816B11B10121416210BD00214162816953
:102F9000124A01E0B9B1491E01EB810352F8233016
:102FA000002BF7D001EB810302EB830202F108044E
:102FB00053685B685360A34201D15B685360DA6871
:102FC0000260816110BD502080F31188BFF34F8FE4
:102FD000BFF36F8FFEE7000024000020F4050020FF
:102FE0001CB5264908780190FF20087008788DF8F4
:102FF00000009DF800009DF8002000F0F0009042D5
:1030000007D0502080F31188BFF34F8FBFF36F8F2D
:10301000FEE79DF800001A4B00F0500018700720E2
:10302000986005E09DF8002052008DF80020401EB9
:103030009DF800201206F5D49860032807D0502090
:1030400080F31188BFF34F8FBFF36F8FFEE74FF40C
:1030500040709860019808700A48016841F4700156
:103060000160016841F070410160FFF71BFE002024
:103070005860FDF79BF800201CBD000000E400E054
:103080009000002020ED00E038B5049D18B153B148
:10309000CAB181B120E0502080F31188BFF34F8F77
:1030A000BFF36F8FFEE7502080F31188BFF34F8F7F
:1030B000BFF36F8FFEE7502080F31188BFF34F8F6F
:1030C000BFF36F8FFEE739B1502080F31188BFF353
:1030D0004F8FBFF36F8FFEE750241C46012384F807
:1030E00046302B460094FFF77DFA204638BD70B578
:1030F0000D46040025D0FFF773FDD4E90F202168A9
:1031000002FB001161600021A1632168A1600A46F1
:10311000D4E90F01401E00FB0121E16021464FF080
:10312000FF3001F8440F487004F110008DB1FFF733
:1031300025FD04F12400FFF721FDFFF771FD0120BB
:1031400070BD502080F31188BFF34F8FBFF36F8F96
:10315000FEE721690029F0D000F0CEFAEDE700008B
:103160002DE9FF41002682B01D468846040003D0A9
:10317000B8F1000F08D011E0502080F31188BFF3A0
:103180004F8FBFF36F8FFEE7206C38B1502080F374
:103190001188BFF34F8FBFF36F8FFEE7022D0AD167
:1031A000E06B012807D0502080F31188BFF34F8FC8
:1031B000BFF36F8FFEE700F0F9F9002748B90498D4
:1031C00038B1502080F31188BFF34F8FBFF36F8F5A
:1031D000FEE7FFF705FDA06BE16B884205D3022DEA
:1031E00003D0049890B1A6B117E02A464146204684
:1031F000FFF757F9606A18B104F1240000F07CFA77
:10320000FFF70EFD012006B0BDE8F081FFF708FDD5
:1032100021E06846FFF724FE0126FFF701FDFFF7D6
:10322000A5FEFFF7DDFC94F94400401C01D184F8B1
:10323000447094F94500401C01D184F84570FFF7B3
:10324000EFFC04A9684600F01FF930B12046FFF7F3
:10325000B9FB00F089FA0020D5E7FFF7C1FCA06BAD
:10326000E16B884216D1FFF7DBFC04F110000499F2
:10327000FFF704FE2046FFF7A5FB00F075FA0028D3
:10328000A7D108494FF080500860BFF34F8FBFF3BC
:103290006F8F9EE7FFF7C4FC2046FFF793FB00F01B
:1032A00063FA96E704ED00E02DE9F0471F469046EB
:1032B0008946040003D0B9F1000F08D011E0502076
:1032C00080F31188BFF34F8FBFF36F8FFEE7206C41
:1032D00038B1502080F31188BFF34F8FBFF36F8F49
:1032E000FEE7022F0AD1E06B012807D0502080F3BF
:1032F0001188BFF34F8FBFF36F8FFEE7FFF7E4FC3A
:103300005020EFF3118680F31188BFF34F8FBFF386
:103310006F8FA06BE16B884206D3022F04D0002090
:1033200086F31188BDE8F08794F945503A4649463E
:103330002046FFF7B6F8681C04D06D1C84F8455091
:103340000120EDE7606A0028FAD004F1240000F0C3
:10335000D3F90028F4D0B8F1000FF1D00121C8F85A
:103360000010EDE72DE9F741002683B08846040000
:1033700003D0B8F1000F08D011E0502080F311887D
:10338000BFF34F8FBFF36F8FFEE7206C38B1502033
:1033900080F31188BFF34F8FBFF36F8FFEE700F00C
:1033A00005F9002748B9059838B1502080F31188F5
:1033B000BFF34F8FBFF36F8FFEE7FFF711FCA56BD5
:1033C0008DB141462046FFF759F86D1EA56320696F
:1033D00018B104F1100000F08FF9FFF721FC012073
:1033E00006B0BDE8F081059808B11EB106E0FFF710
:1033F00017FC27E06846FFF733FD0126FFF710FCB6
:10340000FFF7B4FDFFF7ECFB94F94400401C01D139
:1034100084F8447094F94500401C01D184F845704B
:10342000FFF7FEFB05A9684600F02EF800282046AD
:103430000AD0FFF7C7FA00F097F92046FFF774F9B2
:103440000028BAD00020CBE7FFF76EF9A0B104F155
:1034500024000599FFF712FD2046FFF7B3FA00F0AC
:1034600083F90028A9D107494FF080500860BFF3C5
:103470004F8FBFF36F8FA0E72046FFF7A3FA00F04E
:1034800073F99AE704ED00E02DE9F0410C460500E0
:1034900011D0C4B1FFF7A4FB174B5A696E682068BE
:1034A000911B471C17D02F689B6A9F4219D09642E8
:1034B00017D8012410E0502080F31188BFF34F8FFC
:1034C000BFF36F8FFEE7502080F31188BFF34F8F5B
:1034D000BFF36F8FFEE70024FFF7A2FB2046BDE895
:1034E000F081884205D9401A20602846FFF7B8FCD1
:1034F000F1E700202060DCE7240000202DE9FF5FD9
:103500008346DDE90E87994616468A469000FFF706
:103510008FFA05001CD05C20FFF78AFA040014D053
:103520000020256384F85900CDE90240CDE90087E9
:103530004B46324651465846FFF765F82046FEF79F
:1035400017FF012004B0BDE8F09F2846FFF77CFB81
:103550004FF0FF30F6E7F0B585B0DDE90B640A9D6A
:10356000A6B1DCB15C2700972663022684F8596077
:10357000002604AFCDE90246CDE90057FFF743F836
:103580002046FEF7F5FE049805B0F0BD502080F30C
:103590001188BFF34F8FBFF36F8FFEE7502080F38A
:1035A0001188BFF34F8FBFF36F8FFEE70548C169E6
:1035B00019B1806B18B100207047012070470220BC
:1035C0007047000024000020014840697047000057
:1035D000240000202DE9F041254C4FF00008A06B9D
:1035E00028B1206A401C20624046BDE8F08166692F
:1035F000761C666113D16068006838B1502080F392
:103600001188BFF34F8FBFF36F8FFEE76068A1682B
:103610006160A060A06A401CA062FFF753F9206BB4
:103620008642E1D3134F6068006838B16068C068B3
:10363000C5686868864204D22063D5E74FF0FF3042
:10364000FAE7281DFFF772FAA86A18B105F1180009
:10365000FFF76CFAE86AA169884200D9A06100EB23
:10366000800007EB8000291DFFF7AEFADBE70000C2
:1036700024000020F405002070B504004FF0000184
:1036800033D01B4D2868844207D0502080F3118826
:10369000BFF34F8FBFF36F8FFEE7206D38B1401E31
:1036A0002065E36CE26A9A421FD040B11DE05020D1
:1036B00080F31188BFF34F8FBFF36F8FFEE7201D9C
:1036C000FFF734FAE06CE062C0F13800A061E06A14
:1036D000A969884200D9A861064900EB800001EB86
:1036E0008000211DFFF770FA0121084670BD00001F
:1036F00024000020F405002070B5C068C46854B1EF
:1037000004F118000646FFF711FA144DA86B50B1EA
:103710003146134815E0502080F31188BFF34F8FD6
:10372000BFF36F8FFEE7201DFFF700FAE06AA9697B
:10373000884200D9A8610B4900EB800001EB8000B2
:10374000211DFFF741FAE06A2968C96A884202D957
:103750000120686270BD002070BD000024000020C0
:103760007C0A0020F40500202DE9F047254D0024B7
:10377000A146A86B38B1FFF733FAA86B401EA863C7
:10378000A86B40B139E0502080F31188BFF34F8F10
:10379000BFF36F8FFEE728691B4F012668B3A7F5BB
:1037A00091683868D8B1F868C46804F11800FFF768
:1037B000BDF9201DFFF7BAF9E06AA969884200D96E
:1037C000A86100EB800108EB8100211DFFF7FCF9E7
:1037D000E06A2968C96A8842E3D36E62E1E70CB106
:1037E000FFF770F82C6A3CB1FFF7F4FE00B16E628F
:1037F000641EF9D100202862686AFFF711FA484672
:10380000BDE8F087240000207C0A002010B586B0B7
:10381000FEF708FE114CA068B8B100200390049098
:1038200005AA04A903A8FFF79FF9DDE903210220F7
:103830008DE8070000230AA10B48059AFFF78BFECD
:10384000E06010B106B0012010BD502080F3118857
:10385000BFF34F8FBFF36F8FFEE7000060000020C3
:10386000546D722053766300A12900082DE9FF41B1
:103870001E46134602000A9D4FF0000016D0144C5D
:10388000A768002F0FD0CDE900130292062917DA9E
:10389000FFF78CFE02284FF000030FD0002269468C
:1038A000A068FFF75DFC04B0BDE8F081502080F314
:1038B0001188BFF34F8FBFF36F8FFEE72A46EEE705
:1038C0000023324669463846FFF7EEFCEBE700007E
:1038D00060000020483900080000000000000000DF
:1038E00000000000000000000002000018000000BE
:1038F0000000000000000000543900080000000033
:1039000000000000000000000000000000010000B6
:10391000300000000000000000000000010202036F
:103920000405060708090A0B0C0D0E0F1010000005
:10393000000000000000010203040607080900005F
:103940000000010203040000646973706C61795423
:1039500061736B006B6579426F6172645461736B64
:103960000000000084390008000000209C000000D6
:1039700028010008203A00089C0000204C24000088
:1039800044010008000000000000000000000000EA
:103990000000000000000000010000001000000016
:1039A000000000000024F4000000000000000000FF
:1039B0000000000000000000000000000000000007
:1039C00000000000000000000000000000000000F7
:1039D00000000000000000000000000000000000E7
:1039E00000000000000000000000000000000000D7
:1039F00000000000000000000000000000000000C7
:103A000000000000000000000000000000000000B6
:103A10000000000000000000AAAAAAAA00000000FE
:04000005080000ED02
:00000001FF
